{
  "contractName": "Election",
  "abi": [
    {
      "inputs": [],
      "stateMutability": "nonpayable",
      "type": "constructor"
    },
    {
      "anonymous": false,
      "inputs": [
        {
          "indexed": false,
          "internalType": "uint256",
          "name": "indexed_candidateId",
          "type": "uint256"
        }
      ],
      "name": "votedEvent",
      "type": "event"
    },
    {
      "inputs": [
        {
          "internalType": "uint256",
          "name": "",
          "type": "uint256"
        }
      ],
      "name": "candidates",
      "outputs": [
        {
          "internalType": "uint256",
          "name": "id",
          "type": "uint256"
        },
        {
          "internalType": "string",
          "name": "CfirstName",
          "type": "string"
        },
        {
          "internalType": "string",
          "name": "ClastName",
          "type": "string"
        },
        {
          "internalType": "string",
          "name": "CidNumber",
          "type": "string"
        },
        {
          "internalType": "uint256",
          "name": "voteCount",
          "type": "uint256"
        }
      ],
      "stateMutability": "view",
      "type": "function"
    },
    {
      "inputs": [],
      "name": "candidatesCount",
      "outputs": [
        {
          "internalType": "uint256",
          "name": "",
          "type": "uint256"
        }
      ],
      "stateMutability": "view",
      "type": "function"
    },
    {
      "inputs": [],
      "name": "manager",
      "outputs": [
        {
          "internalType": "address",
          "name": "",
          "type": "address"
        }
      ],
      "stateMutability": "view",
      "type": "function"
    },
    {
      "inputs": [
        {
          "internalType": "uint256",
          "name": "",
          "type": "uint256"
        }
      ],
      "name": "users",
      "outputs": [
        {
          "internalType": "string",
          "name": "firstName",
          "type": "string"
        },
        {
          "internalType": "string",
          "name": "lastName",
          "type": "string"
        },
        {
          "internalType": "string",
          "name": "idNumber",
          "type": "string"
        },
        {
          "internalType": "string",
          "name": "email",
          "type": "string"
        },
        {
          "internalType": "string",
          "name": "password",
          "type": "string"
        },
        {
          "internalType": "address",
          "name": "add",
          "type": "address"
        }
      ],
      "stateMutability": "view",
      "type": "function"
    },
    {
      "inputs": [],
      "name": "usersCount",
      "outputs": [
        {
          "internalType": "uint256",
          "name": "",
          "type": "uint256"
        }
      ],
      "stateMutability": "view",
      "type": "function"
    },
    {
      "inputs": [
        {
          "internalType": "address",
          "name": "",
          "type": "address"
        }
      ],
      "name": "voters",
      "outputs": [
        {
          "internalType": "bool",
          "name": "",
          "type": "bool"
        }
      ],
      "stateMutability": "view",
      "type": "function"
    },
    {
      "inputs": [
        {
          "internalType": "string",
          "name": "_CfirstName",
          "type": "string"
        },
        {
          "internalType": "string",
          "name": "_ClastName",
          "type": "string"
        },
        {
          "internalType": "string",
          "name": "_CidNumber",
          "type": "string"
        }
      ],
      "name": "addCandidate",
      "outputs": [],
      "stateMutability": "nonpayable",
      "type": "function"
    },
    {
      "inputs": [
        {
          "internalType": "uint256",
          "name": "_candidateId",
          "type": "uint256"
        }
      ],
      "name": "vote",
      "outputs": [],
      "stateMutability": "nonpayable",
      "type": "function"
    },
    {
      "inputs": [
        {
          "internalType": "string",
          "name": "_firstName",
          "type": "string"
        },
        {
          "internalType": "string",
          "name": "_lastName",
          "type": "string"
        },
        {
          "internalType": "string",
          "name": "_idNumber",
          "type": "string"
        },
        {
          "internalType": "string",
          "name": "_email",
          "type": "string"
        },
        {
          "internalType": "string",
          "name": "_password",
          "type": "string"
        }
      ],
      "name": "addUser",
      "outputs": [],
      "stateMutability": "nonpayable",
      "type": "function"
    }
  ],
  "bytecode": "0x608060405234801561000f575f80fd5b50335f806101000a81548173ffffffffffffffffffffffffffffffffffffffff021916908373ffffffffffffffffffffffffffffffffffffffff1602179055506113668061005c5f395ff3fe608060405234801561000f575f80fd5b5060043610610091575f3560e01c8063481c6a7511610064578063481c6a75146101385780636ba13a8214610156578063a3ec138d14610174578063ad71f8dc146101a4578063b37a3d82146101c057610091565b80630121b93f146100955780632d35a8a2146100b15780633477ee2e146100cf578063365b98b214610103575b5f80fd5b6100af60048036038101906100aa9190610a7b565b6101dc565b005b6100b9610304565b6040516100c69190610ab5565b60405180910390f35b6100e960048036038101906100e49190610a7b565b61030a565b6040516100fa959493929190610b58565b60405180910390f35b61011d60048036038101906101189190610a7b565b6104ce565b60405161012f96959493929190610bfd565b60405180910390f35b6101406107c3565b60405161014d9190610c7f565b60405180910390f35b61015e6107e6565b60405161016b9190610ab5565b60405180910390f35b61018e60048036038101906101899190610cc2565b6107ec565b60405161019b9190610d07565b60405180910390f35b6101be60048036038101906101b99190610e4c565b610809565b005b6101da60048036038101906101d59190610ef0565b61090e565b005b60015f3373ffffffffffffffffffffffffffffffffffffffff1673ffffffffffffffffffffffffffffffffffffffff1681526020019081526020015f205f9054906101000a900460ff161561022f575f80fd5b5f8111801561024057506003548111155b610248575f80fd5b6001805f3373ffffffffffffffffffffffffffffffffffffffff1673ffffffffffffffffffffffffffffffffffffffff1681526020019081526020015f205f6101000a81548160ff02191690831515021790555060025f8281526020019081526020015f206004015f8154809291906102c090611020565b91905055505f8190507ffff3c900d938d21d0990d786e819f29b8d05c1ef587b462b939609625b684b16826040516102f89190610ab5565b60405180910390a15050565b60035481565b6002602052805f5260405f205f91509050805f01549080600101805461032f90611094565b80601f016020809104026020016040519081016040528092919081815260200182805461035b90611094565b80156103a65780601f1061037d576101008083540402835291602001916103a6565b820191905f5260205f20905b81548152906001019060200180831161038957829003601f168201915b5050505050908060020180546103bb90611094565b80601f01602080910402602001604051908101604052809291908181526020018280546103e790611094565b80156104325780601f1061040957610100808354040283529160200191610432565b820191905f5260205f20905b81548152906001019060200180831161041557829003601f168201915b50505050509080600301805461044790611094565b80601f016020809104026020016040519081016040528092919081815260200182805461047390611094565b80156104be5780601f10610495576101008083540402835291602001916104be565b820191905f5260205f20905b8154815290600101906020018083116104a157829003601f168201915b5050505050908060040154905085565b6004602052805f5260405f205f91509050805f0180546104ed90611094565b80601f016020809104026020016040519081016040528092919081815260200182805461051990611094565b80156105645780601f1061053b57610100808354040283529160200191610564565b820191905f5260205f20905b81548152906001019060200180831161054757829003601f168201915b50505050509080600101805461057990611094565b80601f01602080910402602001604051908101604052809291908181526020018280546105a590611094565b80156105f05780601f106105c7576101008083540402835291602001916105f0565b820191905f5260205f20905b8154815290600101906020018083116105d357829003601f168201915b50505050509080600201805461060590611094565b80601f016020809104026020016040519081016040528092919081815260200182805461063190611094565b801561067c5780601f106106535761010080835404028352916020019161067c565b820191905f5260205f20905b81548152906001019060200180831161065f57829003601f168201915b50505050509080600301805461069190611094565b80601f01602080910402602001604051908101604052809291908181526020018280546106bd90611094565b80156107085780601f106106df57610100808354040283529160200191610708565b820191905f5260205f20905b8154815290600101906020018083116106eb57829003601f168201915b50505050509080600401805461071d90611094565b80601f016020809104026020016040519081016040528092919081815260200182805461074990611094565b80156107945780601f1061076b57610100808354040283529160200191610794565b820191905f5260205f20905b81548152906001019060200180831161077757829003601f168201915b505050505090806005015f9054906101000a900473ffffffffffffffffffffffffffffffffffffffff16905086565b5f8054906101000a900473ffffffffffffffffffffffffffffffffffffffff1681565b60055481565b6001602052805f5260405f205f915054906101000a900460ff1681565b5f8054906101000a900473ffffffffffffffffffffffffffffffffffffffff1673ffffffffffffffffffffffffffffffffffffffff163373ffffffffffffffffffffffffffffffffffffffff161461085f575f80fd5b60035f81548092919061087190611020565b91905055506040518060a0016040528060035481526020018481526020018381526020018281526020015f81525060025f60035481526020019081526020015f205f820151815f015560208201518160010190816108cf9190611261565b5060408201518160020190816108e59190611261565b5060608201518160030190816108fb9190611261565b5060808201518160040155905050505050565b60055f81548092919061092090611020565b91905055506040518060c001604052808681526020018581526020018481526020018381526020018281526020013373ffffffffffffffffffffffffffffffffffffffff1681525060045f60055481526020019081526020015f205f820151815f01908161098e9190611261565b5060208201518160010190816109a49190611261565b5060408201518160020190816109ba9190611261565b5060608201518160030190816109d09190611261565b5060808201518160040190816109e69190611261565b5060a0820151816005015f6101000a81548173ffffffffffffffffffffffffffffffffffffffff021916908373ffffffffffffffffffffffffffffffffffffffff1602179055509050505050505050565b5f604051905090565b5f80fd5b5f80fd5b5f819050919050565b610a5a81610a48565b8114610a64575f80fd5b50565b5f81359050610a7581610a51565b92915050565b5f60208284031215610a9057610a8f610a40565b5b5f610a9d84828501610a67565b91505092915050565b610aaf81610a48565b82525050565b5f602082019050610ac85f830184610aa6565b92915050565b5f81519050919050565b5f82825260208201905092915050565b5f5b83811015610b05578082015181840152602081019050610aea565b5f8484015250505050565b5f601f19601f8301169050919050565b5f610b2a82610ace565b610b348185610ad8565b9350610b44818560208601610ae8565b610b4d81610b10565b840191505092915050565b5f60a082019050610b6b5f830188610aa6565b8181036020830152610b7d8187610b20565b90508181036040830152610b918186610b20565b90508181036060830152610ba58185610b20565b9050610bb46080830184610aa6565b9695505050505050565b5f73ffffffffffffffffffffffffffffffffffffffff82169050919050565b5f610be782610bbe565b9050919050565b610bf781610bdd565b82525050565b5f60c0820190508181035f830152610c158189610b20565b90508181036020830152610c298188610b20565b90508181036040830152610c3d8187610b20565b90508181036060830152610c518186610b20565b90508181036080830152610c658185610b20565b9050610c7460a0830184610bee565b979650505050505050565b5f602082019050610c925f830184610bee565b92915050565b610ca181610bdd565b8114610cab575f80fd5b50565b5f81359050610cbc81610c98565b92915050565b5f60208284031215610cd757610cd6610a40565b5b5f610ce484828501610cae565b91505092915050565b5f8115159050919050565b610d0181610ced565b82525050565b5f602082019050610d1a5f830184610cf8565b92915050565b5f80fd5b5f80fd5b7f4e487b71000000000000000000000000000000000000000000000000000000005f52604160045260245ffd5b610d5e82610b10565b810181811067ffffffffffffffff82111715610d7d57610d7c610d28565b5b80604052505050565b5f610d8f610a37565b9050610d9b8282610d55565b919050565b5f67ffffffffffffffff821115610dba57610db9610d28565b5b610dc382610b10565b9050602081019050919050565b828183375f83830152505050565b5f610df0610deb84610da0565b610d86565b905082815260208101848484011115610e0c57610e0b610d24565b5b610e17848285610dd0565b509392505050565b5f82601f830112610e3357610e32610d20565b5b8135610e43848260208601610dde565b91505092915050565b5f805f60608486031215610e6357610e62610a40565b5b5f84013567ffffffffffffffff811115610e8057610e7f610a44565b5b610e8c86828701610e1f565b935050602084013567ffffffffffffffff811115610ead57610eac610a44565b5b610eb986828701610e1f565b925050604084013567ffffffffffffffff811115610eda57610ed9610a44565b5b610ee686828701610e1f565b9150509250925092565b5f805f805f60a08688031215610f0957610f08610a40565b5b5f86013567ffffffffffffffff811115610f2657610f25610a44565b5b610f3288828901610e1f565b955050602086013567ffffffffffffffff811115610f5357610f52610a44565b5b610f5f88828901610e1f565b945050604086013567ffffffffffffffff811115610f8057610f7f610a44565b5b610f8c88828901610e1f565b935050606086013567ffffffffffffffff811115610fad57610fac610a44565b5b610fb988828901610e1f565b925050608086013567ffffffffffffffff811115610fda57610fd9610a44565b5b610fe688828901610e1f565b9150509295509295909350565b7f4e487b71000000000000000000000000000000000000000000000000000000005f52601160045260245ffd5b5f61102a82610a48565b91507fffffffffffffffffffffffffffffffffffffffffffffffffffffffffffffffff820361105c5761105b610ff3565b5b600182019050919050565b7f4e487b71000000000000000000000000000000000000000000000000000000005f52602260045260245ffd5b5f60028204905060018216806110ab57607f821691505b6020821081036110be576110bd611067565b5b50919050565b5f819050815f5260205f209050919050565b5f6020601f8301049050919050565b5f82821b905092915050565b5f600883026111207fffffffffffffffffffffffffffffffffffffffffffffffffffffffffffffffff826110e5565b61112a86836110e5565b95508019841693508086168417925050509392505050565b5f819050919050565b5f61116561116061115b84610a48565b611142565b610a48565b9050919050565b5f819050919050565b61117e8361114b565b61119261118a8261116c565b8484546110f1565b825550505050565b5f90565b6111a661119a565b6111b1818484611175565b505050565b5b818110156111d4576111c95f8261119e565b6001810190506111b7565b5050565b601f821115611219576111ea816110c4565b6111f3846110d6565b81016020851015611202578190505b61121661120e856110d6565b8301826111b6565b50505b505050565b5f82821c905092915050565b5f6112395f198460080261121e565b1980831691505092915050565b5f611251838361122a565b9150826002028217905092915050565b61126a82610ace565b67ffffffffffffffff81111561128357611282610d28565b5b61128d8254611094565b6112988282856111d8565b5f60209050601f8311600181146112c9575f84156112b7578287015190505b6112c18582611246565b865550611328565b601f1984166112d7866110c4565b5f5b828110156112fe578489015182556001820191506020850194506020810190506112d9565b8683101561131b5784890151611317601f89168261122a565b8355505b6001600288020188555050505b50505050505056fea2646970667358221220b75038d0771fee126844b0193f64baa894070d907b95bb70cee10cc92dc0c55864736f6c63430008150033",
  "immutableReferences": {},
  "source": "// SPDX-License-Identifier: MIT\npragma solidity >=0.4.22 <0.9.0;\n\n\ncontract Election{\n\n    address public manager;\n\n    struct Candidate {\n        uint id;\n        string CfirstName;\n        string ClastName;\n        string CidNumber;\n        uint voteCount;\n    }\n\n    mapping (address => bool) public voters;\n\n    mapping (uint => Candidate) public candidates;\n\n    uint public candidatesCount;\n\n    event votedEvent (\n        uint indexed_candidateId\n    );\n\n\n    constructor () public  {\n        manager = msg.sender;\n    }\n\n    function addCandidate (string memory _CfirstName, string memory _ClastName, string memory _CidNumber) public onlyAdmin{\n        candidatesCount++;\n        candidates[candidatesCount] = Candidate(candidatesCount, _CfirstName, _ClastName, _CidNumber, 0);\n    }\n\n    modifier onlyAdmin () {\n        require(msg.sender == manager);\n        _;\n    }\n\n\n    function vote (uint _candidateId) public {\n        \n        require(!voters[msg.sender]);\n\n        require(_candidateId > 0 && _candidateId <= candidatesCount);\n\n        voters[msg.sender] = true;\n\n        candidates[_candidateId].voteCount ++;\n\n        uint candidateId = _candidateId;\n\n        emit votedEvent(_candidateId);\n    }\n\n    //users\n    //register\n    struct User {\n        string firstName;\n        string lastName;\n        string idNumber;\n        string email;\n        string password;\n        address add;\n    }\n\n    mapping (uint => User) public users;\n\n    uint public usersCount;\n\n    function addUser (string memory _firstName, string memory _lastName, string memory _idNumber, string memory _email, string memory _password) public{\n        usersCount++;\n        users[usersCount] = User(_firstName, _lastName, _idNumber, _email, _password, msg.sender);\n    }\n\n\n\n\n}\n",
  "sourcePath": "C:\\Users\\Angele\\Desktop\\vote\\backend\\contracts\\Election.sol",
  "compiler": {
    "name": "solc",
    "version": "0.8.21+commit.d9974bed.Emscripten.clang"
  },
  "schemaVersion": "3.4.16",
  "updatedAt": "2024-06-08T19:47:25.299Z",
  "devdoc": {
    "kind": "dev",
    "methods": {},
    "version": 1
  },
  "userdoc": {
    "kind": "user",
    "methods": {},
    "version": 1
  }
}